:1000000000400020F9040000390500003B05000015
:1000100000000000000000000000000000000000E0
:100020000000000000000000000000003D0500008E
:1000300000000000000000003F0500004105000036
:100040004305000043050000430500004305000090
:1000500043050000000000004305000043050000C8
:100060004305000043050000430500004305000070
:100070004305000043050000430500004305000060
:100080004305000043050000430500004305000050
:100090004305000043050000430500004305000040
:1000A00043050000430500000000000000000000C0
:1000B0000000000000000000000000000000000040
:1000C0000448054B10B5834203D0044B002B00D0ED
:1000D000984710BD3C0400203C04002000000000B4
:1000E00006480749091A8910CB0F591810B549104D
:1000F00003D0044B002B00D0984710BD3C040020D7
:100100003C0400200000000010B5074C2378002BB1
:1001100009D1FFF7D5FF054B002B02D0044800E0C2
:1001200000BF0123237010BD3C040020000000002C
:100130000C080000054B10B5002B03D004490548FE
:1001400000E000BFFFF7CCFF10BDC046000000007C
:10015000400400200C080000144B002B00D1124B6F
:100160009D46402292029A1A924600218B460F46E3
:100170001148124A121A00F03BFA0D4B002B00D026
:1001800098470C4B002B00D098470020002104001A
:100190000D000B4800F0D6F900F006FA2000290007
:1001A00000F010F800F0D6F9000008000040002030
:1001B00000000000000000003C0400205804002063
:1001C0007505000080B584B000AF00F05FF804232F
:1001D000FB6013E00122FB689A401100A023DA05BE
:1001E000A323DB00D1500122FB689A40A023DB054A
:1001F0001100234A9950FB680133FB60FB680F2B09
:10020000E8DDA023DB051F4A00219950A023DA0571
:10021000ED23DB000021D1500023BB6004237B6071
:100220000AE001227B689A40A023DB051100144AF2
:1002300099507B6801337B607B680C2BF1DDA02338
:10024000DA05A223DB00D2588023DB04134002D15D
:10025000422000F057F8A023DA05A223DB00D25891
:1002600080239B02134002D1412000F04BF8064B43
:10027000BB60BB68013BBB60BB68002BF9D1DEE70C
:100280000C050000440700001027000080B500AFF7
:10029000A023DA05EC23DB000121D150A023DB05EC
:1002A000124A00219950124A124B1821D150104A7B
:1002B000114B1921D1500E4A104B1149D1500C4904
:1002C000A223DB0001225242CA500949A123DB00CC
:1002D00001225242CA50064AA023DB000421D15019
:1002E000034B01221A60C046BD4680BD6407000072
:1002F000002000400C05000014050000240500004B
:100300000050270080B582B000AF0200FB1D1A70BC
:100310000D4B01229A600C49FB1D1B780B4A8B5038
:10032000094A8E235B000021D150C046064A8E2325
:100330005B00D358002BF9D0034B0122DA60C04692
:10034000BD4602B080BDC046002000401C05000034
:1003500080B500AF00F036F8031E06D0134B144AE8
:100360001A60144B802212021A6000F06BF8031E10
:1003700005D08023DA05C123DB000121D15000F034
:1003800087F8031E0ED00C4B1B68012B07D00A4BBD
:100390000A4A1A60C046084B1B68012BFBD1084B68
:1003A000C0221A60C046BD4680BDC046040500405C
:1003B000DFFF07C0186C004000EC0640759300009A
:1003C00014EC064080B500AF1A4B1B68FF221340A7
:1003D000012B2AD1184B1B680F22134025D1174B34
:1003E0001B68F022134006D1154B1B68F022134006
:1003F00001D101231AE0114B1B68F0221340102B8E
:1004000006D10F4B1B68F022134001D101230DE0F0
:100410000A4B1B68F0221340302B06D1084B1B6897
:10042000F022134001D1012300E000231800BD4653
:1004300080BDC046E00F00F0E40F00F0E80F00F0D0
:10044000EC0F00F080B500AF0D4B1B68FF2213408E
:10045000012B11D10B4B1B680F2213400CD10A4BFF
:100460001B68F0221340402B06D1084B1B68F0227A
:10047000134001D1012300E000231800BD4680BDD8
:10048000E00F00F0E40F00F0E80F00F0EC0F00F0D8
:1004900080B500AF144B1B68FF221340012B1ED107
:1004A000124B1B680F22134019D1114B1B68F0220D
:1004B0001340A02B06D10F4B1B68F022134001D133
:1004C00001230DE00A4B1B68F0221340D02B06D10C
:1004D000084B1B68F022134001D1012300E00023E8
:1004E0001800BD4680BDC046E00F00F0E40F00F0EC
:1004F000E80F00F0EC0F00F003210A4802680A43FD
:100500000260094802680A4302600849084A094B28
:100510009B1A03DD043BC858D050FBDCFFF718FFE3
:10052000FFF71AFE2405004054050040180800009B
:10053000000000203C040020FEE7FEE7FEE7FEE7A7
:10054000FEE7FEE710B5010000230022002000F0C6
:100550009DF810BD10B50021040000F0DBF8044B3D
:100560001868C36B002B00D09847200000F03EF9BC
:100570000808000070B5094B094CE41AA41009D012
:10058000084AA518AD00ED182B68013C9847043DBA
:10059000002CF9D100F032F970BDC04638040020BB
:1005A0003C040020FFFFFF3F70B50D4E0D4DAD1B0D
:1005B000AD1006D00024A300F35801349847A5429B
:1005C000F9D100F015F9084E084DAD1BAD1006D05D
:1005D0000024A300F35801349847A542F9D170BD17
:1005E00030040020300400203004002038040020B3
:1005F000F0B5830746D0541E002A42D0CEB2020086
:10060000032502E01A00013C3BD3531C16702B4219
:10061000F8D1032C2DD9FF220A40150215432A04D4
:1006200015430F2C16D92700103F3F093E01B44651
:100630001E001A0010366644156055609560D5603E
:100640001032B242F8D10F2201373F01DB191440BA
:10065000032C0ED9261FB608B700BC461A001F1D72
:10066000674420C2BA42FCD103220136B6009B196E
:100670001440002C05D0C9B21C19197001339C42DA
:10068000FBD1F0BD14000300C3E7C046F0B5C64679
:1006900000B51F4C82B024680194A424019D64001D
:1006A0002D59002D2BD06C681F2C2EDC002809D171
:1006B0000020631C0234A4006B60615102B004BCD2
:1006C0009046F0BD8827A600AE19F2510137FF37DA
:1006D000BC460122AC446746A2403F68904617439F
:1006E0006246176084277F00F3510228E0D12B0077
:1006F00040468D33FF331A6810431860D8E7019DD8
:10070000019E4D35FF353551CDE701204042D5E7FB
:1007100008080000F0B54E46DE4657464546E0B5AF
:100720002B4B83B01B6801901A000093A4235B003D
:10073000D65801220F0093469946002E30D0746897
:10074000651E2DD4C4235B009A460134A4003419DD
:10075000B24402E0043C013D22D3002F04D0631CCC
:10076000FF331B68BB42F5D173682268013BAB4283
:100770001DD000232360002AECD0736851469846B0
:100780005B46AB400968194213D190474A46009B2B
:100790009B587268424501D19E42DBD01E1ECED1CD
:1007A00003B03CBC90469946A246AB46F0BD75608E
:1007B000E1E7300021008D30FF30006880310968AA
:1007C000184202D101989047E0E708009047DDE722
:1007D00008080000034B10B5002B02D00248FFF7B9
:1007E000B1FE10BD0000000075050000FEE7C04628
:1007F000F8B5C046F8BC08BC9E467047F8B5C04680
:10080000F8BC08BC9E4670470800002000000000AD
:0808100048F9FF7F0100000020
:10081800080000200000000000000000F402002092
:100828005C030020C403002000000000000000005A
:1008380000000000000000000000000000000000B0
:1008480000000000000000000000000000000000A0
:100858000000000000000000000000000000000090
:100868000000000000000000000000000000000080
:100878000000000000000000000000000000000070
:100888000000000000000000000000000000000060
:100898000000000000000000000000000000000050
:1008A8000000000000000000000000000000000040
:1008B8000000000000000000000000000000000030
:1008C80001000000000000000E33CDAB34126DE6CD
:1008D800ECDE05000B000000000000000000000036
:1008E8000000000000000000000000000000000000
:1008F80000000000000000000000000000000000F0
:1009080000000000000000000000000000000000DF
:1009180000000000000000000000000000000000CF
:0C0C4800D5070000350100000901000084
:04000003000004F9FC
:00000001FF
